:100000000C94F5000C941D010C941D010C941D0121
:100010000C941D010C941D010C941D010C941D01E8
:100020000C941D010C941D010C94B1050C94310627
:100030000C941D010C941D010C941D010C941D01C8
:100040000C941D010C941D010C941D010C941D01B8
:100050000C941D010C941D010C941D010C9467055A
:100060000C941D010C941D010C941D010C941D0198
:100070000C941D010C941D010C941D010C941D0188
:100080000C941D010C941D010C941D010C941D0178
:100090000C941D010C941D010C941D010C941D0168
:1000A0000C941D010C941D010C941D01E804EB043B
:1000B000DA04DE04E2040C050C050C05EF04F3047D
:1000C000F704FD0401050C050705005EBCE2613F75
:1000D000DD83C29C7E20A3FD1F41009D23BE46DB25
:1000E00065F88C11AF32CA57E97400000000230094
:1000F000260029002C002F00080B0002020201003C
:10010000090400000102020000052400100105247A
:1001100001010104240206052406000107058103EC
:1001200010004009040100020A0000000705020255
:100130004000000705830240000004030904120187
:100140000002EF020140032A408000010102030186
:10015000556E6B6E6F776E0041726475696E6F20BD
:100160004C656F6E6172646F20455448000000005A
:100170000200090F0000030401000C000000000051
:10018000000000000000000000000000000000006F
:10019000250028002B002E00310000000000240064
:1001A00027002A002D003000040404040403040581
:1001B0000202020204030202020206060606060604
:1001C00004040202020404040802011040804010EA
:1001D000204080408008020401804020100201106D
:1001E00080102040402042103C1011241FBECFEF51
:1001F000DAE0DEBFCDBF24E0A6E0B3E001C01D928F
:10020000AE33B207E1F713E0A0E0B1E0E0E8FBE2D3
:1002100002C005900D92A630B107D9F710E0C4EFE7
:10022000D0E004C02197FE010E94A213C33FD10772
:10023000C9F70E94930B0C94B3150C940000CF9255
:10024000DF92EF92FF920F931F93CF93DF936C0196
:100250007A018B01C0E0D0E0CE15DF0581F0D80136
:100260006D918D01D601ED91FC910190F081E02D11
:10027000C6010995892B11F02196EECF7E01C701A9
:10028000DF91CF911F910F91FF90EF90DF90CF9072
:100290000895CF93DF931F92CDB7DEB76983DC015A
:1002A000ED91FC910280F381E02D41E050E0BE0130
:1002B0006F5F7F4F09950F90DF91CF910895FC01FB
:1002C0008485958597FD0BC09FB7F89482E0809355
:1002D000E9008091F2009FBF90E0019608959FB7DA
:1002E000F89482E08093E9008091F2009FBF90E053
:1002F0000895089580E090E008950C94CE0AEF925E
:10030000FF920F931F93CF93DF938C017B0165E5E1
:100310000E94F508E70188E0E80EF11C6991C80128
:100320000E94F508CE15DF05C9F7DF91CF911F9127
:100330000F91FF90EF9008958F929F92AF92BF928E
:10034000CF92DF92EF92FF920F931F93CF93DF93A1
:100350006C017B018A0180910F01882309F45CC044
:1003600080914803882309F457C080911F0380FFC0
:1003700005C08091E00082608093E000E801B12C2C
:100380008AEFA82E93E0892E2AE3922E209711F46B
:10039000BB20D9F10E94070B81110AC0AA94AA20A0
:1003A000D9F161E070E080E090E00E942105EECF9D
:1003B000282F30E0C217D3070CF48C2F9FB7F89486
:1003C0008092E9002091E80025FF1DC0282F30E031
:1003D000C21BD30BF701815020F041914093F100F3
:1003E000FACFE20EF31EBB2019F09092E8000AC08B
:1003F0008091E80085FD07C09092E800BB24B3948B
:10040000209709F0B12C9FBFC1CF5D9884E68093FF
:1004100020031016110644F081E090E0F60193836A
:10042000828380E090E001C0C801DF91CF911F91ED
:100430000F91FF90EF90DF90CF90BF90AF909F9083
:100440008F9008950E94070B90E008950F931F93DB
:10045000CF93DF931F92CDB7DEB78C01FC0184856B
:10046000958597FF0EC0CE0101960E94D90A01978B
:1004700019F4898190E002C08FEF9FEFF801958712
:100480008487F801848595850F90DF91CF911F9126
:100490000F910895CF93DF931F92CDB7DEB7FC0184
:1004A0008485958597FD05C02FEF3FEF358724871D
:1004B0000BC0CE0101960E94D90A019719F48981D7
:1004C00090E002C08FEF9FEF0F90DF91CF910895E2
:1004D00040911C0350911D0320911A0330911B037E
:1004E00042175307B4F49091E8009570E1F39091AE
:1004F000E80092FD19C08093F10080911C03909157
:100500001D0301968F739927892B19F48EEF809321
:10051000E80080911C0390911D03019690931D03A8
:1005200080931C0381E0089580E00895615030F0CD
:100530002091F100FC0120830196F8CF289884E6F1
:10054000809347030895FC0190810180F281E02DA2
:10055000F8948181892B81832281892F809528239A
:100560002283A7E0B0E01197F1F7218182238183F4
:10057000A3E2B0E01197F1F780817894EFECF0E01E
:100580003197F1F7982381E009F480E00895FC01A8
:1005900090810180F281E02D892F809560FF12C04B
:1005A000F8942281822382838181892B8183A3E233
:1005B000B0E01197F1F78281982B9283789487EDC0
:1005C00090E011C0F8942281822382838181892B5B
:1005D0008183AFEFB0E01197F1F78281982B92837E
:1005E00078948FE090E00197F1F70895DC012C9169
:1005F0001196ED91FC911297F8948181922F90952C
:100600008923818378948DE743E050E0815021F184
:10061000DA011197F1F730813223C1F3F894828126
:10062000892382838181822B81837894ABE7B7E031
:100630001197F1F7F89481819823918383E191E0F8
:100640000197F1F78081282381E009F080E0789418
:10065000E3E6F6E03197F1F70895CF93DF93EC01ED
:100660008FE391E00E949108BE010D2E000C880BD3
:10067000990B97FF03C00E94D40803C04AE00E9470
:10068000930887E591E00E949108FE01EE0FFF1F9D
:10069000E85EFE4F808191810E948308CE01DF9148
:1006A000CF9108953FB7F894809127039091280344
:1006B000A0912903B0912A0326B5A89B05C02F3F1E
:1006C00019F00196A11DB11D3FBFBA2FA92F982F78
:1006D0008827820F911DA11DB11DBC01CD0142E0F3
:1006E000660F771F881F991F4A95D1F70895DF92EB
:1006F000EF92FF920F931F93CF93DF93D82EF92E93
:10070000E42E062F10E0C8010196880F0E946802AF
:1007100083E00E946802CD2DDF2D0C0F1D1FC01736
:10072000D10789F0E7FE03C0FE01849101C08881F2
:100730000E946802F82E80E00E9468028F212196B4
:100740008111EDCF01C081E0DF91CF911F910F9119
:10075000FF90EF90DF900895DF92EF92FF920F935A
:100760001F93CF93DF93D82E8A017B01E40EF51EF1
:10077000EB01CE15DF0571F0D7FE03C0FE018491B9
:1007800001C088810E94680221968111F2CF8FEF0B
:100790009FEF01C0C801DF91CF911F910F91FF9092
:1007A000EF90DF9008950F931F93CF93DF931F92E5
:1007B000CDB7DEB782E0898342E450E068EF70E0B5
:1007C00080E80E94AC030E947F0BDC0112960D9121
:1007D0001C9113970115110589F0D801ED91FC9139
:1007E0000280F381E02DBE016F5F7F4FC801099544
:1007F00097FD04C0F80100851185ECCF89810F9029
:10080000DF91CF911F910F910895AF92BF92CF9238
:10081000DF92EF92FF920F931F93CF93DF93CDB7A9
:10082000DEB765970FB6F894DEBF0FBECDBFF82ECA
:10083000E92E10922B03198A188A1B8A1A8A1D8A9C
:100840001C8A62E070E0CE0140960E94180B811174
:100850000EC0CE0140960E946D0B0F2D1E2D58012B
:1008600088E0A80EB11CFE0131966F0135C082E010
:1008700090E09D8B8C8B6AEC72E0888999890E944C
:100880009D15EBCFFF86EE86B6018A859B850E947B
:100890009D158E859F85029740F441E050E06DECF8
:1008A00072E0CE0140960E943F0B4E855F856A85BF
:1008B0007B85CE0140960E943F0B41E050E069E805
:1008C00071E0CE0140960E943F0B8A859B850E9475
:1008D0004014A016B10611F1F80181918F011B8619
:1008E0001A861D861C861F861E8640E1B60190E092
:1008F0000E94E310F60101900020E9F731977F0193
:10090000EC18FD08B701CE010A960E94180B811160
:10091000B9CFCE010A960E946D0BBBCF0C891D8901
:100920000115110519F410922B0310C00B3111059C
:1009300010F00BE110E068897989A8018BE293E05F
:100940000E94A415F801E55DFC4F10828889998901
:100950000E9440148BE293E065960FB6F894DEBFD8
:100960000FBECDBFDF91CF911F910F91FF90EF9000
:10097000DF90CF90BF90AF900895362F90E0FC01AC
:10098000E359FE4F4491FC01E953FE4F2491FC01D1
:10099000E855FE4F8491882309F452C04423E1F1C5
:1009A00050E0FA013197EF30F105B0F5EA5AFF4F08
:1009B0000C94A213909180009F7707C090918000C3
:1009C0009F7D03C090918000977F9093800024C00A
:1009D00094B59F7702C094B59F7D94BD1DC0909142
:1009E00090009F7707C0909190009F7D03C09091E9
:1009F0009000977F909390000FC09091C0009F77D8
:100A000003C09091C0009F7D9093C00005C090915D
:100A1000C200977F9093C200E82FF0E0EE0FFF1F17
:100A2000E457FE4FA591B4919FB7F894311104C0DB
:100A30008C912095282302C0EC912E2B2C939FBFE4
:100A400008958F929F92AF92BF92CF92DF92EF92D2
:100A5000FF926B017C010E9452034B015C01C114A7
:100A6000D104E104F104F1F00E945203DC01CB0156
:100A700088199909AA09BB09883E9340A105B105C7
:100A800070F321E0C21AD108E108F10888EE880E5F
:100A900083E0981EA11CB11CC114D104E104F1042F
:100AA00019F7DDCFFF90EF90DF90CF90BF90AF9020
:100AB0009F908F9008952FB7F894609123037091C1
:100AC000240380912503909126032FBF08951F9240
:100AD0000F920FB60F9211242F933F938F939F93F2
:100AE000AF93BF938091230390912403A09125039A
:100AF000B09126033091220323E0230F2D3720F4F9
:100B00000196A11DB11D05C026E8230F0296A11D67
:100B1000B11D209322038093230390932403A09379
:100B20002503B09326038091270390912803A09179
:100B30002903B0912A030196A11DB11D80932703BB
:100B400090932803A0932903B0932A03BF91AF91F8
:100B50009F918F913F912F910F900FBE0F901F90FB
:100B600018951F920F920FB60F9211242F933F9357
:100B70004F935F936F937F938F939F93AF93BF93A5
:100B8000CF93EF93FF93C091E1008091E100837FC9
:100B90008093E100C3FF0FC01092E90081E08093D1
:100BA000EB001092EC0082E38093ED00109248037A
:100BB00088E08093F000C2FF18C00E94CE0A8091A6
:100BC0002003882339F080912003815080932003F3
:100BD000882389F180914703882339F08091470366
:100BE000815080934703882341F1C4FF10C0809156
:100BF000E2008E7E81608093E2008091E1008F7E32
:100C00008093E10080911F038E7E806111C0C0FF40
:100C100016C08091E2008E7E80618093E200809118
:100C2000E1008E7E8093E10080911F038E7E8160C3
:100C300080931F0304C05D9ACDCF289AD6CFFF9131
:100C4000EF91CF91BF91AF919F918F917F916F91D4
:100C50005F914F913F912F910F900FBE0F901F907A
:100C600018951F920F920FB60F921124CF92DF9218
:100C7000EF92FF920F931F932F933F934F935F93A6
:100C80006F937F938F939F93AF93BF93EF93FF9354
:100C9000CF93DF93CDB7DEB76C97DEBFCDBF109299
:100CA000E9008091E80083FFFBC168E0CE01459632
:100CB0000E94960282EF8093E8008D8987FF05C02D
:100CC0009091E80090FFFCCF03C09EEF9093E80066
:100CD000982F907609F0C6C09E894F89588D2F892C
:100CE000F88C91110CC0803829F480911E038093F8
:100CF000F10002C01092F1001092F10045C1913054
:100D000051F4811141C14130510509F03DC180913B
:100D10001E038D7F0BC0933061F4811135C14130CA
:100D2000510509F031C180911E03826080931E033A
:100D30002BC1953049F48091E80080FFFCCF822FD1
:100D400080688093E30020C1963009F05EC00B8D6F
:100D50001C8D22E01092E90010921D0310921C03DA
:100D6000F21232C010921B0310921A030E94D30396
:100D700099E0BE016F5F7F4FDB01E92F1D92EA957D
:100D8000E9F79983FA8291E09E8390EA98879AEF37
:100D9000998720911C0330911D03275F3F4F3C83AF
:100DA0002B838D831092E90010921D0310921C0377
:100DB00010931B0300931A0349E050E080E00E9467
:100DC000AC030E94D303E0C010931B0300931A03EB
:100DD0000E947F0BDC0112960D911C911397011557
:100DE000110509F4BBC0D801ED91FC910480F58197
:100DF000E02DBE016B5E7F4FC8010995009709F099
:100E0000C7C0F80100851185EACF973009F445C1C4
:100E1000983021F481E08093F100B6C0993009F058
:100E2000B3C0837009F039C1E7E2F1E081E031E05D
:100E300096E32081211109C08EE78093EA00109289
:100E4000EA008F89809348039FC08093E900309324
:100E5000EB0021912093EC009093ED008F5F8730A1
:100E600041F7EACF8B8D9C8D1092E90010921D0303
:100E700010921C0390931B0380931A03898D811198
:100E800053C08E899D89913A49F4813209F005C198
:100E900047E050E068E071E080E0BBC0913209F0CB
:100EA000FCC0833269F48F89988DA0E0B0E0809314
:100EB000040190930501A0930601B093070164C05B
:100EC000803269F48091E80082FFFCCF67E088E01F
:100ED00091E00E9496028BEF8093E80055C0823229
:100EE00009F052C08F8980930F01EEEFFFE78591E3
:100EF00094918B3F9C4D19F0E0E0F8E002C0EEEFDA
:100F0000FAE08091080190910901A0910A01B09145
:100F10000B01803B9440A105B10509F09EC0809172
:100F20000F0180FF79C099C00E947F0BFC010281F4
:100F300013810115110509F4B0C0D801ED91FC91A0
:100F40000190F081E02DBE016B5E7F4FC8010995D5
:100F500081111AC0F80100851185EBCFF1E0FF1671
:100F600009F44EC0F3E0FF1298C08F89882309F47A
:100F70004AC0823089F440E864E188E591E00E944B
:100F80007703882309F489C08EEF8093E80088C036
:100F900018161906CCF381C0813029F440E867E0C7
:100FA00080E591E0ECCF833009F077C00E947F0BA1
:100FB000DC011296ED90FC9013978E010F5F1F4F8E
:100FC0006801E114F10479F0D701ED91FC910680FC
:100FD000F781E02DB801C7010995080F111DF70130
:100FE000E084F184EECFD8011C92F601019000203C
:100FF000E9F73197BF016C197D0940E0C601BFCF09
:101000006EE371E002C06AE371E0FB01449150E0DD
:1010100080E80E94AC03B8CFEE3F2AE0F20751F01F
:10102000808191818737A7E79A0721F09093FF0A83
:101030008093FE0A87E797E7918380838091600021
:10104000809321039BE088E10FB6F894A8958093E4
:1010500060000FBE9093600097CF808191818737A9
:10106000974709F091CFA89580916000886180939F
:1010700060008091210380936000EE3FBAE0FB079F
:1010800039F08091FE0A9091FF0A918380837CCF92
:101090001092FF0A1092FE0A77CF81E28093EB0054
:1010A0006C960FB6F894DEBF0FBECDBFDF91CF9127
:1010B000FF91EF91BF91AF919F918F917F916F9130
:1010C0005F914F913F912F911F910F91FF90EF9062
:1010D000DF90CF900F900FBE0F901F9018950E9439
:1010E0008F15009769F0FC0101900020E9F7319716
:1010F000AF01481B590BBC0185E593E00C949C01A2
:1011000080E090E00895CF93DF930E947108EC0196
:1011100081ED91E00E9471088C0F9D1FDF91CF91AE
:1011200008950C9471088F929F92AF92BF920F9383
:101130001F93CF93DF93CDB7DEB7A1970FB6F89487
:10114000DEBF0FBECDBF19A2423008F44AE08E01C7
:101150000F5D1F4F842E912CA12CB12CA501940161
:101160000E948013E62FB901CA0101501109EA302B
:1011700014F4E05D01C0E95CD801EC93232B242B2F
:10118000252B61F7C8010E947108A1960FB6F8944B
:10119000DEBF0FBECDBFDF91CF911F910F91BF90EA
:1011A000AF909F908F900895CF92DF92EF92FF9231
:1011B000CF93DF936B017C016DE285E593E00E94A4
:1011C0004901EC0166277727CB016C197D098E094F
:1011D0009F094AE00E9493088C0F9D1FDF91CF91D9
:1011E000FF90EF90DF90CF900895EF92FF920F93D2
:1011F0001F93CF93DF93EC01E62E08E010E0FF246D
:10120000F39461E08E2D8F2109F460E0CE010E94FD
:10121000C702FF0C01501109A1F7F894E981FA8186
:1012200091818881809589238183E981FA819281E6
:1012300088818095892382837894DF91CF911F9153
:101240000F91FF90EF900895BF92CF92DF92EF92AF
:10125000FF920F931F93CF93DF93EC016B018D856A
:10126000811105C0CE010E94F602811105C01B86C6
:101270001D861C8680E05FC060EFCE010E94F508ED
:1012800001E0E12CB12C11E0CE010E94A302F82E66
:10129000CE010E94A30291E0F91203C08130B1F4A3
:1012A00034C02E2D30E0F8121BC08B85181738F48F
:1012B000FE01E20FF31F8381802341F402C08117F6
:1012C00029F0F12C193058F41C8709C0FE01EE0DED
:1012D000F11D8381802B8383FF24F39409C0B12EF9
:1012E000FE01E20FF31F9381802F80958923838372
:1012F0006F2DCE010E94C7021F5F000F11F4E3940F
:1013000001E087E08E1508F0BFCF113408F4AFCFAD
:10131000BB86B11002C081E08D878B81882309F4E0
:10132000A6CFDE011396F6012B968D918193CA17F5
:10133000DB07D9F781E0DF91CF911F910F91FF90EB
:10134000EF90DF90CF90BF900895CF92DF92EF9211
:10135000FF9228EEC22E23E0D22EE12CF12CC09277
:101360005103D0925203E0925303F09254036093DE
:101370004D0370934E0380934F0390935003693E47
:1013800073408105910560F08FEC92E00E94830824
:10139000C0924D03D0924E03E0924F03F09250035F
:1013A00040914D0350914E0360914F037091500353
:1013B00088EE93E0A0E0B0E0841B950BA60BB70B82
:1013C0008093490390934A03A0934B03B0934C033B
:1013D000FF90EF90DF90CF9008958F929F92AF9201
:1013E000BF92CF92DF92EF92FF920F931F93CF9312
:1013F000DF936B017C01142F9B01AC010E947B13D6
:10140000882319F089EF92E027C046015701E8943C
:10141000B7F82FEF3FEF4FE75FE7C501B4010E9438
:101420007B1381110DC02FEF3FEF4FE75FE7C50141
:10143000B4010E940D1118161CF48DEF92E00CC03F
:101440002FEF3FEF4FE75FE4C701B6010E9476132D
:10145000181684F481E093E0DF91CF911F910F91F2
:10146000FF90EF90DF90CF90BF90AF909F908F90C4
:101470000C9471082FEF3FEF4FE75FECC701B60107
:101480000E940D1187FDE6CF20E030E0A901C701E1
:10149000B6010E940D1187FF0BC06DE285E593E058
:1014A0000E944901EC01F7FAF094F7F8F09402C0B9
:1014B000C0E0D0E000E060E070E080E09FE3101763
:1014C00041F020E030E040E251E40E94D5120F5F8D
:1014D000F6CFA70196010E9469126B017C010E9460
:1014E00047134B015C014AE00E949308C80FD91FC3
:1014F0001123B9F1C501B4010E9412119B01AC0185
:10150000C701B6010E9468126B017C016EE285E59D
:1015100093E00E944901C80FD91F20E030E040E26B
:1015200051E4C701B6010E9473114B015C010E9496
:1015300047136B01E12CF12C4AE0C701B6010E9470
:101540009308C80FD91FC701B6010E9412119B0151
:10155000AC01C501B4010E9468126B017C011150FD
:10156000E1F6CE01DF91CF911F910F91FF90EF90A7
:10157000DF90CF90BF90AF909F908F900895CF93C2
:10158000DF934AE00E949308EC0181ED91E00E9414
:1015900071088C0F9D1FDF91CF91089583E0809398
:1015A000E9008091F200882319F08AE38093E80033
:1015B000089520914803211103C08FEF9FEF0895F4
:1015C0005FB7F89422E02093E9002091F20030E028
:1015D0001216130614F421E030E0422FFC0184E6D9
:1015E000415038F02898809347039091F1009193EF
:1015F000F7CF2115310521F08091F200882319F0F1
:101600005FBFC90108958BE68093E800F9CF2FB73B
:10161000F89483E08093E9009091E800892F80722C
:1016200095FF04C09091F20080E4891B2FBF0895BC
:101630000F931F93CF93DF93EC01888199810097DB
:1016400029F02A813B812617370788F48B016F5FC9
:101650007F4F0E94C914009761F0998388831B8390
:101660000A832C813D81232B11F4FC01108281E03F
:1016700001C080E0DF91CF911F910F910895EF920B
:10168000FF920F931F93CF93DF936115710511F4B0
:1016900080E01CC041155105C1F07B01EC018C813B
:1016A0009D818A01080F191FB801CE010E94180BF5
:1016B000882371F3288139818C819D81B701820F44
:1016C000931F0E949D151D830C8381E0DF91CF91B4
:1016D0001F910F91FF90EF900895CF93DF93EC014E
:1016E00088819981009711F00E9440141982188214
:1016F0001D821C821B821A82DF91CF9108958091F6
:10170000320481110DC082E080932E0484E0809326
:101710002F04109231041092300481E0809332043F
:101720008EE294E00895CF93DF93CDB7DEB72E9786
:101730000FB6F894DEBF0FBECDBF789484B582603B
:1017400084BD84B5816084BD85B5826085BD85B565
:10175000816085BD80916E00816080936E001092E3
:10176000810080918100826080938100809181005E
:1017700081608093810080918000816080938000EF
:1017800080919100826080939100809191008160AE
:10179000809391008091900081608093900080916F
:1017A000C10084608093C1008091C10082608093F9
:1017B000C1008091C10081608093C1008091C3000D
:1017C00081608093C3008091C00082608093C000DC
:1017D0008091C20081608093C20080917A00846011
:1017E00080937A0080917A00826080937A00809161
:1017F0007A00816080937A0080917A00806880937B
:101800007A001092480310921E0310921F038091D9
:10181000D70081608093D70080EA8093D80089B593
:10182000806189BD89B5826089BD09B400FEFDCFA4
:1018300061E070E080E090E00E9421058091D80096
:101840008F7C80618093D8008091E000807F8093BE
:10185000E0008091E1008E7E8093E1008DE0809336
:10186000E200559A209A8FEF9FEF90936203809346
:10187000610310910F016AE070E080E090E00E9447
:101880002105111107C06AE070E080E090E00E943D
:101890002105EFCF10922B0410922A048EE090E0E5
:1018A0000E94A813DC01E0EDF1E08491E1EBF1E0AE
:1018B00024912223D9F030E0220F331FF901E6569C
:1018C000FE4F45915491F901E457FE4F2591349113
:1018D0006FB7F894FA019081782F7095892F87233C
:1018E0008083F9018081872380836FBFE0EDF1E081
:1018F000E491EC93E1EBF1E0E491F0E0EE0FFF1FF7
:10190000E651FF4F8591949112969C938E93119777
:101910001B961C921B971D961C921D971C961C9241
:101920001C97FD013B96CD0103961292E817F9072B
:10193000E1F7B0932D04A0932C04BE016F5F7F4F9D
:1019400080912C0490912D040E9424098111F5CFDF
:1019500060912A0470912B04A3E0660F771FAA956B
:10196000E1F76E5F7B4F80912C0490912D040E94D3
:10197000240900912A0410912B04882309F439C00A
:10198000C801E3E0880F991FEA95E1F78E5F9B4F4E
:101990000E94050420912A0430912B04A901F3E050
:1019A000440F551FFA95E1F7DA01AE5FBB4F68E0CF
:1019B000E0E0615089F08D918E27E82FEF70F0E024
:1019C000E653FF4F9491E82FE295EF70F0E0E65276
:1019D000FF4FE491E927EDCFDA01AE5FBB4F1796D9
:1019E0008C918E1709F441C384E691E00E9491081E
:1019F000AFCF87E791E00E949108B801012E000C5B
:101A0000880B990B97FF03C00E94D40803C04AE0DB
:101A10000E9493088EE791E00E9491080230110520
:101A200024F08BE592E00E94910885E891E00E9405
:101A3000830872E0C72E74E0D72EE12CF12CE0165B
:101A4000F106D4F487E891E00E94910880912A047D
:101A500090912B04E816F90624F4C6010E940504AF
:101A600002C08CE591E00E948308FFEFEF1AFF0AA5
:101A700028E0C20ED11CE3CF8091000190910101BA
:101A8000A0910201B09103018093EE039093EF03C4
:101A9000A093F003B093F1038AE090E090931101DA
:101AA0008093100160ED77E080E090E00E942105D6
:101AB0000E945B056B017C018BE891E00E9491081C
:101AC0004AE0C701B6010E94930888E991E00E94AC
:101AD000830883E090E00E942D039093A6038093F7
:101AE000A503AE01465F5F4F5E874D87AA24A3948E
:101AF000B12C62E0662E712C85E593E00E945F01B7
:101B0000892B09F453C085E593E00E944A02C097EF
:101B1000BC01990F880B990B0E9414116B017C0179
:101B200085E593E00E945F01892BE9F085E593E06C
:101B30000E944A028C0120E030E040E251E4C701FB
:101B4000B6010E9473116B017C01B80160537109E9
:101B5000072E000C880B990B0E941411A701960107
:101B60000E946912DBCF8BE991E00E94910842E06C
:101B7000C701B6010E94ED098FEA91E00E94910829
:101B8000C0920001D0920101E0920201F0920301A3
:101B9000C092EE03D092EF03E092F003F092F103D3
:101BA0008AE090E090931101809310010E945B0500
:101BB0001B012C0160931603709317038093180385
:101BC0009093190380912A0490912B0418161906FA
:101BD0000CF078C080912C0490912D040E94F602A4
:101BE00062E074E080912C0490912D040E947F01AA
:101BF00064E480912C0490912D040E94F50868EE15
:101C000073E080E090E00E94210580912C04909187
:101C10002D040E94F60262E074E080912C04909101
:101C20002D040E947F016EEB80912C0490912D0475
:101C30000E94F5088E010F5F1F4F80902C0490903A
:101C40002D0448E0C42ED12CF12CEE24E394C401E1
:101C50000E94A3028111FE28EE0C91E0C91AD1085E
:101C6000B1F7F801F1928F012D853E852E173F07C0
:101C700021F78A8190E0982F88272981820F911D72
:101C800097FF03C091958195910936E0389FB00187
:101C9000399F700D112497FD03969595879595951D
:101CA0008795680F791F072E000C880B990B0E94EF
:101CB000141120E030E048EC52E40E94D5126B0190
:101CC0007C0103C0C12CD12C7601C0921203D092AA
:101CD0001303E0921403F0921503A701960160919B
:101CE0000E0370910F0380911003909111030E94D5
:101CF0000D11882321F14AE0C201B1010E9493082D
:101D00008FEA91E00E94910842E0C701B6010E946B
:101D1000ED0982EB91E00E9491080E94CE0A809129
:101D2000120390911303A0911403B09115038093B3
:101D30000E0390930F03A0931003B09311038091AF
:101D4000A5039091A603039709F087C12090120381
:101D500030901303409014035090150386EB91E0EC
:101D60000E94910881ED91E00E94710884ED91E05C
:101D70000E9491086091F6037091F7038091F80337
:101D80009091F9030E94BF0A80EF91E00E949108B0
:101D90006091FE037091FF03809100049091010413
:101DA0000E94BF0A8CE092E00E9491080E945B05AD
:101DB0000E94BF0A88E292E00E9491082091BD0330
:101DC0003091BE034091BF035091C0036091F20374
:101DD0007091F3038091F4039091F5030E946812CF
:101DE0006B017C0142E00E94ED098EE392E00E94CB
:101DF00091086091C9037091CA038091CB039091BF
:101E0000CC034AE00E94930886E492E00E94910885
:101E10006091C9037091CA038091CB039091CC0368
:101E20000E9412119B01AC01C701B6010E94D5129C
:101E30006B017C018CE492E00E94910820E030E08C
:101E40004AE754E4C701B6010E94731142E00E94C0
:101E5000ED0987E592E00E9483088DE592E00E94FB
:101E600091086091D6037091D7038091D803909127
:101E7000D90342E00E94ED098EE392E00E949108AE
:101E80006091D2037091D3038091D4039091D503D4
:101E90004AE00E94930886E492E00E9491086091D3
:101EA000D2037091D3038091D4039091D5030E9403
:101EB00012119B01AC016091D6037091D703809100
:101EC000D8039091D9030E94D5126B017C018CE458
:101ED00092E00E94910820E030E04AE754E4C70114
:101EE000B6010E94731142E00E94ED0987E592E07D
:101EF0000E948308C090EE03D090EF03E090F003BF
:101F0000F090F103A7019601C201B1010E940D11E9
:101F100087FF1FC02091DE033091DF034091E00373
:101F20005091E103C201B1010E94D5129B01AC01A5
:101F3000C701B6010E9468120E944713693E43E040
:101F400074078105910540F068EE73E080E090E051
:101F500003C060E070E0CB010E94A5091091100160
:101F6000E090A703F090A80380914D0390914E0359
:101F7000A0914F03B09150034091510350915203EF
:101F8000609153037091540384179507A607B70710
:101F9000B9F4F70171A260A20E945B051B012C013C
:101FA00060E0812F0E94BD0420920A0330920B034F
:101FB00040920C0350920D03F701B1A2A0A22FC0D2
:101FC000892B8A2B8B2BB9F4F701B1A2A0A20E9416
:101FD0005B051B012C0161E0812F0E94BD04209252
:101FE0000603309207034092080350920903F70159
:101FF00071A260A214C00E945B0560E0812F0E9464
:10200000BD0460914D0370914E0380914F039091F8
:1020100050030E94210561E0812F0E94BD046AE007
:1020200070E080E090E00E942105C0905103D090C4
:102030005203E0905303F09054030E945B05A70104
:1020400096010E948013A7019601261B370B480BAF
:10205000590BCA01B9010E94210540E050E0452B0F
:1020600009F44ACD0E94000047CD2F5F3F4F3093C7
:102070002B0420932A046CCC8091A7039091A80391
:102080000C944014109258031092570388EE93E07A
:10209000A0E0B0E08093590390935A03A0935B03B0
:1020A000B0935C0381E391E09093560380935503D2
:1020B0008FEF9FEF909362038093610310922B0444
:1020C00010922A041092A6031092A5031092A8035E
:1020D0001092A7031092DA031092DB031092DC0334
:1020E0001092DD031092DE031092DF031092E003E2
:1020F0001092E1031092EE031092EF031092F0039E
:102100001092F1031092F2031092F3031092F40371
:102110001092F5031092FA031092FB031092FC0345
:102120001092FD0380911001909111019927FC01FB
:10213000E953FE4F2491FC01E855FE4F849188231A
:1021400099F090E0880F991FFC01E656FE4FA5918B
:10215000B491FC01E457FE4F859194918FB7F894A8
:10216000EC91E22BEC938FBF61E0809110010E9413
:10217000BD048AE290E00E94A8132AE2FC011192B9
:102180002A95E9F79093A8038093A70380E197E24B
:10219000A0E0B0E08093B9039093BA03A093BB038F
:1021A000B093BC031092CD0368EE73E080E090E042
:1021B0000E94A50980E090E00E942D039093A60361
:1021C0008093A5030895BB27FB015527AA27880FF5
:1021D000991FAA1FA41710F0A41B83955051B9F79B
:1021E000A05DAA3308F0A95DA193009779F7B1111A
:1021F000B1931192CB010C94FD10DC01FC01672F0F
:1022000071917723E1F7329704C07C916D937083CD
:102210006291AE17BF07C8F308950E944F1108F4EA
:1022200081E00895E89409C097FB3EF4909580956D
:10223000709561957F4F8F4F9F4F9923A9F0F92F8C
:1022400096E9BB279395F695879577956795B7950A
:10225000F111F8CFFAF4BB0F11F460FF1BC06F5FF0
:102260007F4F8F4F9F4F16C0882311F096E911C002
:10227000772321F09EE8872F762F05C0662371F023
:1022800096E8862F70E060E02AF09A95660F771F37
:10229000881FDAF7880F9695879597F90895990F13
:1022A0000008550FAA0BE0E8FEEF16161706E80720
:1022B000F907C0F012161306E407F50798F0621B41
:1022C000730B840B950B39F40A2661F0232B242B16
:1022D000252B21F408950A2609F4A140A6958FEF35
:1022E000811D811D08950E9486110C94F7110E9492
:1022F000E91138F00E94F01120F0952311F00C94B0
:10230000E0110C94E61111240C942B120E94081277
:1023100070F3959FC1F3950F50E0551F629FF00138
:10232000729FBB27F00DB11D639FAA27F00DB11D51
:10233000AA1F649F6627B00DA11D661F829F2227DA
:10234000B00DA11D621F739FB00DA11D621F839F61
:10235000A00D611D221F749F3327A00D611D231F37
:10236000849F600D211D822F762F6A2F11249F5785
:1023700050409AF0F1F088234AF0EE0FFF1FBB1F88
:10238000661F771F881F91505040A9F79E3F510547
:1023900080F00C94E0110C942B125F3FE4F3983E14
:1023A000D4F3869577956795B795F795E7959F5FF1
:1023B000C1F7FE2B880F911D9695879597F9089583
:1023C00097F99F6780E870E060E008959FEF80ECE8
:1023D000089500240A94161617061806090608958B
:1023E00000240A9412161306140605060895092EF1
:1023F0000394000C11F4882352F0BB0F40F4BF2B60
:1024000011F460FF04C06F5F7F4F8F4F9F4F08959F
:1024100057FD9058440F551F59F05F3F71F0479595
:10242000880F97FB991F61F09F3F79F0879508957A
:10243000121613061406551FF2CF4695F1DF08C099
:10244000161617061806991FF1CF869571056105B6
:1024500008940895E894BB2766277727CB0197F95E
:1024600008952F923F924F925F926F927F928F9238
:102470009F92AF92BF92CF92DF92EF92FF920F9313
:102480001F93CF93DF93CDB7DEB7CA1BDB0B0FB61D
:10249000F894DEBF0FBECDBF09942A8839884888DA
:1024A0005F846E847D848C849B84AA84B984C88470
:1024B000DF80EE80FD800C811B81AA81B981CE0F67
:1024C000D11D0FB6F894DEBF0FBECDBFED0108954C
:1024D0005058BB27AA270E9480120C94F7110E9423
:1024E000E91138F00E94F01120F039F49F3F19F4FF
:1024F00026F40C94E6110EF4E095E7FB0C94E01141
:10250000E92F0E94081258F3BA176207730784076D
:10251000950720F079F4A6F50C942A120EF4E095B4
:102520000B2EBA2FA02D0B01B90190010C01CA018D
:10253000A0011124FF27591B99F0593F50F4503E38
:1025400068F11A16F040A22F232F342F4427585F2A
:10255000F3CF469537952795A795F0405395C9F742
:102560007EF41F16BA0B620B730B840BBAF09150FA
:10257000A1F0FF0FBB1F661F771F881FC2F70EC099
:10258000BA0F621F731F841F48F48795779567956C
:10259000B795F7959E3F08F0B0CF9395880F08F058
:1025A0009927EE0F9795879508950E94E9120C944C
:1025B000F7110E94F01158F00E94E91140F029F43F
:1025C0005F3F29F00C94E01151110C942B120C94E4
:1025D000E6110E94081268F39923B1F3552391F391
:1025E000951B550BBB27AA2762177307840738F082
:1025F0009F5F5F4F220F331F441FAA1FA9F335D0DF
:102600000E2E3AF0E0E832D091505040E695001C92
:10261000CAF72BD0FE2F29D0660F771F881FBB1F4C
:10262000261737074807AB07B0E809F0BB0B802D2A
:10263000BF01FF2793585F4F3AF09E3F510578F056
:102640000C94E0110C942B125F3FE4F3983ED4F30A
:10265000869577956795B795F7959F5FC9F7880F2A
:10266000911D9695879597F90895E1E0660F771F7C
:10267000881FBB1F621773078407BA0720F0621B0D
:10268000730B840BBA0BEE1F88F7E09508950E9438
:10269000101288F09F5798F0B92F9927B751B0F0D2
:1026A000E1F0660F771F881F991F1AF0BA95C9F7D6
:1026B00014C0B13091F00E942A12B1E008950C9438
:1026C0002A12672F782F8827B85F39F0B93FCCF3EB
:1026D000869577956795B395D9F73EF49095809553
:1026E000709561957F4F8F4F9F4F08950E944F11B6
:1026F00008F48FEF08950E944F11880B990B0895ED
:10270000A1E21A2EAA1BBB1BFD010DC0AA1FBB1FF5
:10271000EE1FFF1FA217B307E407F50720F0A21B67
:10272000B30BE40BF50B661F771F881F991F1A94D4
:1027300069F760957095809590959B01AC01BD01FE
:10274000CF010895EE0FFF1F0590F491E02D09943D
:102750000F931F93CF93DF938230910510F482E0A3
:1027600090E0E0913C04F0913D0420E030E0A0E0F6
:10277000B0E0309719F140815181028113814817EF
:102780005907C8F08417950769F4109731F012962D
:102790000C93129713961C9327C000933C0410933C
:1027A0003D0422C02115310519F04217530718F4D2
:1027B0009A01BD01EF01DF01F801DBCF21153105E1
:1027C000F9F0281B390B2430310580F48A819B8174
:1027D0006115710521F0FB019383828304C09093FE
:1027E0003D0480933C04FE01329644C0FE01E20F9A
:1027F000F31F8193919322503109398328833AC082
:1028000020913A0430913B04232B41F42091140190
:102810003091150130933B0420933A04209112012A
:10282000309113012115310541F42DB73EB7409188
:10283000160150911701241B350BE0913A04F091D9
:102840003B04E217F307A0F42E1B3F0B28173907B0
:1028500078F0AC014E5F5F4F2417350748F04E0FFC
:102860005F1F50933B0440933A048193919302C0BD
:10287000E0E0F0E0CF01DF91CF911F910F9108953B
:10288000CF93DF93009709F481C0FC013297138244
:102890001282A0913C04B0913D04109781F42081F4
:1028A0003181820F931F20913A0430913B04281705
:1028B000390751F5F0933B04E0933A0467C0ED010A
:1028C00020E030E0CE17DF0740F44A815B819E01B3
:1028D00041155105F1F0EA01F5CFD383C283408160
:1028E0005181840F951FC817D90759F488819981A0
:1028F000840F951F0296918380838A819B819383A5
:1029000082832115310529F4F0933D04E0933C04C2
:102910003DC0E901FB83EA8349915991C40FD51F5A
:10292000EC17FD0761F480819181840F951F029659
:10293000E90199838883828193819B838A83E0E084
:10294000F0E012968D919C911397009719F0FD017C
:10295000DC01F7CF8D919C9111979D012E5F3F4F28
:10296000820F931F20913A0430913B0428173907B6
:1029700069F4309729F410923D0410923C0402C08F
:1029800013821282B0933B04A0933A04DF91CF915B
:102990000895A0E0B0E0EFECF4E10C943512EC0106
:1029A000009721F4CB010E94A813B4C0FC01E60FEC
:1029B000F71F9C0122503109E217F30708F4A8C061
:1029C000D9010D911C91119706171707B0F005302A
:1029D000110508F49BC0C80104978617970708F4EF
:1029E00095C002501109061B170B019311936D93AB
:1029F0007C93CF010E94401489C05B01A01AB10AE8
:102A00004C01800E911EA0913C04B0913D04612CBC
:102A1000712CE12CF12C109709F446C08D919C91FA
:102A20001197A815B905B1F56C0142E0C40ED11C8F
:102A3000CA14DB0478F14C018A189B08640142E057
:102A4000C40ED11C1296BC9012971396AC91B5E0AF
:102A5000CB16D10440F0B282A38391828082D90147
:102A60006D937C9309C00E5F1F4F800F911FF9017A
:102A700091838083EB2DFA2FE114F10431F0D7011B
:102A80001396FC93EE93129741C0F0933D04E093AC
:102A90003C043CC06816790608F43C017D0112969E
:102AA0000D90BC91A02DB7CF80913A0490913B043A
:102AB00088169906E1F466167706C8F4809112012B
:102AC00090911301009741F48DB79EB74091160184
:102AD00050911701841B950BE817F907C8F4F09380
:102AE0003B04E0933A04F901718360830FC0CB018A
:102AF0000E94A8137C01009759F0A801BE010E9412
:102B00009415CE010E944014C70104C0CE0102C03A
:102B100080E090E0CDB7DEB7EEE00C94511281E09A
:102B200090E0F8940C94B315FB01DC0102C0019015
:102B30000D9241505040D8F70895FB01DC010190FF
:102B40000D920020E1F70895FB01DC014150504057
:102B500048F001900D920020C9F701C01D9241502C
:102B60005040E0F7089510E0C4EFD0E004C0FE014B
:102B70000E94A2132196C53FD107C9F7F894FFCF51
:102B800000002042FFFFFFFF00E100000000000006
:102B90000A0000003E0480007302820292029C023E
:102BA000A802B602C40200C180810000000000003B
:102BB0000049019C0122027D015F014A0226022A8E
:102BC0002A205374617465206368616E67696E675B
:102BD00020746F3A20280029203D20002865727259
:102BE0006F722900435243206973206E6F74207600
:102BF000616C6964210A00466F756E642000207064
:102C0000726F6265003A00202D2000537461727467
:102C1000696E6720617420006D73002A2A206E653A
:102C2000772054656D702076616C75653A20003AA6
:102C30000900C2B00A002A2A20636F6D707574659E
:102C4000526174696F2028706172616D73293A2036
:102C5000000D0A00202020684D617854656D705485
:102C6000696D65202020202020202020203A20008F
:102C7000202020684D6178383054656D7054696D3E
:102C80006520202020202020203A20002020206EB7
:102C90006F7720202020202020202020202020208E
:102CA00020202020203A20002A2A20636F6D707592
:102CB0007465526174696F202831293A2000C2B0CE
:102CC00020666F7220006D73203D3E002020207230
:102CD0006174696F3A200020C2B02F73002A2A2045
:102CE000636F6D70757465526174696F2028322945
:102CF0003A2000677350656E64696E675F49646C63
:102D00006500677348656174696E675F46697273D1
:102D10007400677350656E64696E67006773486519
:102D20006174696E674F6E00677348656174696EA0
:102D30006749646C650067734F66665363616E6EC6
:102D4000696E670067734F666600523D0030002071
:102D50002020205741524E494E47203A2068656155
:102D6000744475726174696F6E203E20737465706F
:102D70004475726174696F6E006E616E00696E6693
:062D8000006F7666000002
:00000001FF
